[
  [
    "from", [{
      "address": "mszYqVnqKoQx4jcTdJXxwKAissE3Jbrrc1",
      "txId": "a477af6b2667c29670467e4e0728b685ee07b240235771862318e29ddbe58458",
      "outputIndex": 0,
      "script": "OP_DUP OP_HASH160 20 0x88d9931ea73d60eaf7e5671efc0552b912911f2a OP_EQUALVERIFY OP_CHECKSIG",
      "satoshis": 1020000
    }],
    "to", ["mrU9pEmAx26HcbKVrABvgL7AwA5fjNFoDc", 1010000],
    "sign", ["cSBnVM4xvxarwGQuAfQFwqDg9k5tErHUHzgWsEfD4zdwUasvqRVY"],
    "serialize", "01000000015884e5db9de218238671572340b207ee85b628074e7e467096c267266baf77a4000000006b4830450221009972100061da4a17a471ac1906c18bb5445c03da2a0be52c59aca6c58f1e342302202b7a19a22572cabb6e55c368ebdb5921541358fa969d5c76b5e0d6ad3f26a7d701210223078d2942df62c45621d209fab84ea9a7a23346201b7727b9b45a29c4e76f5effffffff0150690f00000000001976a9147821c0a3768aa9d1a37e16cf76002aef5373f1a888ac00000000"
  ],
  [
    "from", [{
      "txid": "e42447187db5a29d6db161661e4bc66d61c3e499690fe5ea47f87b79ca573986",
      "vout": 1,
      "address": "mgBCJAsvzgT2qNNeXsoECg2uPKrUsZ76up",
      "scriptPubKey": "76a914073b7eae2823efa349e3b9155b8a735526463a0f88ac",
      "amount": 0.01080000
    }],
    "to", ["mn9new5vPYWuVN5m3gUBujfKh1uPQvR9mf", 500000],
    "to", ["mw5ctwgEaNRbxkM4JhXH3rp5AyGvTWDZCD", 570000],
    "sign", ["cSQUuwwJBAg6tYQhzqqLWW115D1s5KFZDyhCF2ffrnukZxMK6rNZ"],
    "serialize", "0100000001863957ca797bf847eae50f6999e4c3616dc64b1e6661b16d9da2b57d184724e4010000006b483045022100855691c90510edf83ab632f0a0b17f5202d2cf7071050dcf0c2778325ed403cd022014ee7a4e787da8bc088d2ece43108a7b8d7112eba89876a27bb44195a0715a910121039dd446bbc85db6917f39c0b4c295b0f8cce76d1926fa76d7b84e3f7ff1c5eec5ffffffff0220a10700000000001976a91448c819246ae5645ceecd41fbe1aa6202a0a9b5ca88ac90b20800000000001976a914aab76ba4877d696590d94ea3e02948b55294815188ac00000000"
  ],
  [
    "from", [
      [{
        "txid": "a9db84566e0fc9351e86337d2828ab281b25ddc06fab798f6d4b5baef48c02b3",
        "vout": 0,
        "address": "mn9new5vPYWuVN5m3gUBujfKh1uPQvR9mf",
        "account": "",
        "scriptPubKey": "76a91448c819246ae5645ceecd41fbe1aa6202a0a9b5ca88ac",
        "amount": 0.00500000,
        "confirmations": 0
      }, {
        "txid": "a9db84566e0fc9351e86337d2828ab281b25ddc06fab798f6d4b5baef48c02b3",
        "vout": 1,
        "address": "mw5ctwgEaNRbxkM4JhXH3rp5AyGvTWDZCD",
        "account": "",
        "scriptPubKey": "76a914aab76ba4877d696590d94ea3e02948b55294815188ac",
        "amount": 0.00570000,
        "confirmations": 0
      }]
    ],
    "to", ["mtymcCX5KixPjT1zxtg59qewBGWptj9etH", 1060000],
    "sign", [
      ["cPGbA2C54ZZ1sw4dc2ckBE1WqkdrNSbEV8Tkjhi2p1J15oErdgP2", "cSpyve5bXAuyHrNeV9MjTdFz3HLw739yUjjUAUSMe3ppf2qzj2hw"]
    ],
    "serialize", "0100000002b3028cf4ae5b4b6d8f79ab6fc0dd251b28ab28287d33861e35c90f6e5684dba9000000006a4730440220635e95e1981bbb360feaf4c232f626a0af8eb5c043a99749a21b0e37fd0048fd02201c5db8a93f1f5c268be6167da7c92f5030481acf65bef750c81ec9907aba3b170121030253c73236acf5ea9085d408220141197f6094de07426bd0d32c7a543614fdd7ffffffffb3028cf4ae5b4b6d8f79ab6fc0dd251b28ab28287d33861e35c90f6e5684dba9010000006a4730440220319a0b5ee9c67ccb7de4222234f31059354be4f239c99ca24bff30adfec8e8ec02204ad4c6dedebb20d100f9484b9ea6c5ba36712e9da155c24509e793c02e4805fd012102977a001a0a7bbfd1f8a647c7d46e13e8f6920635b328390b43b3303977101149ffffffff01a02c1000000000001976a91493abf1e9e4a20c125b93f93ee39efc16b6e4bc4688ac00000000"
  ],
  [
    "from", [{
      "address": "mgJT8iegL4f9NCgQFeFyfvnSw1Yj4M5Woi",
      "txid": "f50e13cecda9a438ebd7df213a2899e42b2461a18d4630ee773d26b4f2688bdc",
      "vout": 1,
      "scriptPubKey": "76a914089acaba6af8b2b4fb4bed3b747ab1e4e60b496588ac",
      "amount": 0.01
    }],
    "to", ["n3riXZowrjGnY74rx7Hdi9wCyvgyJC28zZ", 990000],
    "sign", ["cPwWtDztEgRCMCU8pMQp4HgphvyadrAsYBrCjXUZuDSmnZkyoyNF"],
    "serialize", "0100000001dc8b68f2b4263d77ee30468da161242be499283a21dfd7eb38a4a9cdce130ef5010000006a473044022012610834051e6af8594dd5d9c47123d6ce03537d321f9fe3f6ff244b23f47dd5022034901bb0d83688758a9248fdef48bd2000b55cf70111cbef8f206e72a31aaf61012103e26b47e7c0d8946954bf9dd4bc7f9e415437eb98271d05f69e78cef8fc6c9a54ffffffff01301b0f00000000001976a914f50f9826ef186074c6fe206cca6b71472ff07ba888ac00000000"
  ],
  [
    "from", [{
      "address":"rFC2FaRuQVadQvKjPrde1rz6VufUyLZ7iM","txid":"073281b2cc94e879aaf30ea2e92947d9827b270015849d3a5b96a89ee15bfa66","vout":0,"ts":1418877950,"scriptPubKey":"a914623cdbcce41601a2abe869cb175df3445f45ffb687","amount":0.00318512,"confirmationsFromCache":false
    }, ["02e1897e5759759416a760e9f3656b7c18ec0961f5148546fb0b8fe48e4029c357", "039fd349bcf87db08c76862cb43f655a8fadaadd5687e0ea432f43b29470fce2a7", "03fe128bfb02304a6946e63c3a484371759a60a9a60c5993bb011856bb069da668"], 2],
    "to", ["rKwdMCVLm35iUorAor85LEQBXCr33SSA92", 300299],
    "sign", [["Kz3KiyvEXzGM16hRRycJoHJsmRD3c21G2iqVp2mLUWSViidvvZB5", "Kyn8k5j31SR9k6ceKEa7N1KLem99LPCMC5fr87au57kXyPJkbWDT"]],
    "serialize", "010000000166fa5be19ea8965b3a9d841500277b82d94729e9a20ef3aa79e894ccb281320700000000fc004730440220188daa4dd333f64079a59fd58ff20e576423f10c3d5eebf9123e7460880ef4e1022076056fd5c25e7b68276743c117b7fce15578d8725d8dfbc2277305e1c1a7e032014730440220033d4462399e0358bba42cbf573c43fa85e7312d3d6a5846d5f20e478cfed39302206fe6df2b3ab1e0c4e1186e9e0064364b7bb6e3382c10ad37c7e6595a08495842014c69522102e1897e5759759416a760e9f3656b7c18ec0961f5148546fb0b8fe48e4029c35721039fd349bcf87db08c76862cb43f655a8fadaadd5687e0ea432f43b29470fce2a72103fe128bfb02304a6946e63c3a484371759a60a9a60c5993bb011856bb069da66853aeffffffff010b9504000000000017a914965c8ba791b2b6d7a0648940c1a41e6e5e8d49b08700000000"
  ],
  [
    "from", [{"address":"rFC2FaRuQVadQvKjPrde1rz6VufUyLZ7iM","txid":"afbf98ca4a43db8915d75184b5204fbe71d916482adfe85cb0ed3635764fc220","vout":0,"ts":1418878108,"scriptPubKey":"a914623cdbcce41601a2abe869cb175df3445f45ffb687","amount":0.00318512,"confirmationsFromCache":false}, ["02e1897e5759759416a760e9f3656b7c18ec0961f5148546fb0b8fe48e4029c357", "039fd349bcf87db08c76862cb43f655a8fadaadd5687e0ea432f43b29470fce2a7", "03fe128bfb02304a6946e63c3a484371759a60a9a60c5993bb011856bb069da668"], 2
    ],
    "from", [
      {"address":"rFC2FaRuQVadQvKjPrde1rz6VufUyLZ7iM","txid":"dc2e197ab72f71912c39bc23a42d823a3aa8d469fe65eb591c086e60d14c64a0","vout":0,"ts":1418878014,"scriptPubKey":"a914623cdbcce41601a2abe869cb175df3445f45ffb687","amount":0.00300299,"confirmationsFromCache":false}, ["02e1897e5759759416a760e9f3656b7c18ec0961f5148546fb0b8fe48e4029c357", "039fd349bcf87db08c76862cb43f655a8fadaadd5687e0ea432f43b29470fce2a7", "03fe128bfb02304a6946e63c3a484371759a60a9a60c5993bb011856bb069da668"], 2],
    "to", ["rKwdMCVLm35iUorAor85LEQBXCr33SSA92", 150000],
    "to", ["rKwdMCVLm35iUorAor85LEQBXCr33SSA92", 160000],
    "change", ["rFC2FaRuQVadQvKjPrde1rz6VufUyLZ7iM"],
    "sign", ["Kz3KiyvEXzGM16hRRycJoHJsmRD3c21G2iqVp2mLUWSViidvvZB5"],
    "sign", ["Kyn8k5j31SR9k6ceKEa7N1KLem99LPCMC5fr87au57kXyPJkbWDT"],
    "serialize", "010000000220c24f763536edb05ce8df2a4816d971be4f20b58451d71589db434aca98bfaf00000000fdfd000047304402206ca5b8ece0c85ffc2586c340875e903fee689b3fc5182143e96e07503f6653cf0220488fb5542bf00ca654ebdc1658ae3de06f2360150cdb91fbaeae6fd74620359f014830450221008a3625e50d2557a21a9300a60576dde55753f42af916446dad257ea70446956c022059f34751782b5f45fb3d274bbd92a75504625436dba0abe16377a9315e00a47a014c69522102e1897e5759759416a760e9f3656b7c18ec0961f5148546fb0b8fe48e4029c35721039fd349bcf87db08c76862cb43f655a8fadaadd5687e0ea432f43b29470fce2a72103fe128bfb02304a6946e63c3a484371759a60a9a60c5993bb011856bb069da66853aeffffffffa0644cd1606e081c59eb65fe69d4a83a3a822da423bc392c91712fb77a192edc00000000fdfd0000483045022100f16202faa1502883d29f6352cc1638f1b33e4b02ace9b3ab53f36022419a31b8022046be1541460d51bf34a61bd2d083f00c1b12dd97cd73c068717af5d44cd950ef0147304402202eab34e2533baf06ba951a74378c5b96dcaad74ac6e50f2f4ea0b02ee9ed50fe02202cc80963ee24dca2af571c07a66776d840f27af5d33802bbd10394f75129633a014c69522102e1897e5759759416a760e9f3656b7c18ec0961f5148546fb0b8fe48e4029c35721039fd349bcf87db08c76862cb43f655a8fadaadd5687e0ea432f43b29470fce2a72103fe128bfb02304a6946e63c3a484371759a60a9a60c5993bb011856bb069da66853aeffffffff03f04902000000000017a914965c8ba791b2b6d7a0648940c1a41e6e5e8d49b087007102000000000017a914965c8ba791b2b6d7a0648940c1a41e6e5e8d49b0872b6804000000000017a914623cdbcce41601a2abe869cb175df3445f45ffb68700000000"
  ]
]
