{"hash":"00000058bcc33dea08b53691edb9e49a9eb8bac36a0db17eb5a7588860b1f590","confirmations":221049,"strippedsize":226,"size":262,"weight":940,"height":1,"version":536870912,"versionHex":"20000000","merkleroot":"3480049256d63cd936a387874fc437912575f782259badac7a09054b94b3a6d8","tx":[{"txid":"3480049256d63cd936a387874fc437912575f782259badac7a09054b94b3a6d8","hash":"fcc5ecf97c179804f07b609e8269fe5844083729b4c90fe8d1773340d823cece","version":2,"size":181,"vsize":154,"locktime":0,"vin":[{"coinbase":"510101","sequence":4294967295}],"vout":[{"value":5000.00000000,"n":0,"scriptPubKey":{"asm":"0277835ff3d899a90d22d297284ad85820d20e63e2155fb543bc9ba4b5832641c1 OP_CHECKSIG","hex":"210277835ff3d899a90d22d297284ad85820d20e63e2155fb543bc9ba4b5832641c1ac","reqSigs":1,"type":"pubkey","addresses":["RKq6ypcHZP7MzR67cRNgy9N9hm9B7ToZqY"]}},{"value":0.00000000,"n":1,"scriptPubKey":{"asm":"OP_RETURN aa21a9ede2f61c3f71d1defd3fa999dfa36953755c690689799962b48bebd836974e8cf9","hex":"6a24aa21a9ede2f61c3f71d1defd3fa999dfa36953755c690689799962b48bebd836974e8cf9","type":"nulldata"}}],"hex":"020000000001010000000000000000000000000000000000000000000000000000000000000000ffffffff03510101ffffffff020088526a7400000023210277835ff3d899a90d22d297284ad85820d20e63e2155fb543bc9ba4b5832641c1ac0000000000000000266a24aa21a9ede2f61c3f71d1defd3fa999dfa36953755c690689799962b48bebd836974e8cf90120000000000000000000000000000000000000000000000000000000000000000000000000"}],"time":1515015723,"mediantime":1515015723,"nonce":2347238,"bits":"1e00ffff","difficulty":0.00390625,"chainwork":"0000000000000000000000000000000000000000000000000000000002000200","previousblockhash":"0000006b444bc2f2ffe627be9d9e7e7a0730000870ef6eb6da46c8eae389df90","nextblockhash":"000000e2aa6490a97dd26301516ce1ec3fcc5a9cea3bb3ae303b6f84092b26bd"}
