{"hash":"000000000001a87be937e85123bf209af485cf94b6cae8125dce2f5a9914ecfb","confirmations":78,"strippedsize":224,"size":224,"weight":896,"height":220909,"version":536870912,"versionHex":"20000000","merkleroot":"e0889c54e0f5320c30e38eb2b643f95661fddc252f4c464a764992b6c633750f","tx":[{"txid":"e0889c54e0f5320c30e38eb2b643f95661fddc252f4c464a764992b6c633750f","hash":"e0889c54e0f5320c30e38eb2b643f95661fddc252f4c464a764992b6c633750f","version":2,"size":143,"vsize":143,"locktime":0,"vin":[{"coinbase":"03ed5e0304d538025b088100230b000000007969696d7000","sequence":0}],"vout":[{"value":4987.50000000,"n":0,"scriptPubKey":{"asm":"OP_DUP OP_HASH160 4a1447ba664cf91b4bcaba481e5beb4fba8095a4 OP_EQUALVERIFY OP_CHECKSIG","hex":"76a9144a1447ba664cf91b4bcaba481e5beb4fba8095a488ac","reqSigs":1,"type":"pubkeyhash","addresses":["RG2tNoZpm6VKgpnUDqHr8L9gDL7kh43JnW"]}},{"value":12.50000000,"n":1,"scriptPubKey":{"asm":"OP_DUP OP_HASH160 d4b842c6f967b913ede358c9a5dd8324ca5229ad OP_EQUALVERIFY OP_CHECKSIG","hex":"76a914d4b842c6f967b913ede358c9a5dd8324ca5229ad88ac","reqSigs":1,"type":"pubkeyhash","addresses":["RUfx4rPTAz4GpeWggGERZeoiQv6WuQVvLS"]}}],"hex":"02000000010000000000000000000000000000000000000000000000000000000000000000ffffffff1803ed5e0304d538025b088100230b000000007969696d70000000000002800bd11f740000001976a9144a1447ba664cf91b4bcaba481e5beb4fba8095a488ac807c814a000000001976a914d4b842c6f967b913ede358c9a5dd8324ca5229ad88ac00000000"}],"time":1526872277,"mediantime":1526871981,"nonce":338027527,"bits":"1b032fb5","difficulty":20567.38431479593,"chainwork":"00000000000000000000000000000000000000000000000084eac1eedcca15bc","previousblockhash":"000000000002aa3ae23385a68bcd591fdd53a0631a7cb25448ae376c7cd097b1","nextblockhash":"0000000000002307cb87d910f9a343a4b942421ea1db314d96eb16334649f0ce"}
